:020000040800F2
:10000000001800207D2600080D2600080F26000895
:1000100000000000000000000000000000000000E0
:100020000000000000000000000000001126000891
:10003000000000000000000013260008152600083C
:10004000FD260008FD260008FD260008FD26000804
:10005000FD260008FD260008FD260008FD260008F4
:10006000FD260008FD260008FD260008FD260008E4
:10007000FD260008FD260008FD260008FD260008D4
:10008000FD2600080000000000000000FD2600081A
:1000900000000000FD260008FD260008FD260008DF
:1000A00000000000FD260008FD260008FD260008CF
:1000B000FD26000800000000FD260008FD260008BF
:1000C00010B5064C2378002B07D1054B002B02D02E
:1000D000044800E000BF0123237010BD240000206D
:1000E0000000000058270008044B10B5002B03D077
:1000F0000349044800E000BF10BDC04600000000F6
:100100002800002058270008002243088B4274D39F
:1001100003098B425FD3030A8B4244D3030B8B4208
:1001200028D3030C8B420DD3FF22090212BA030C11
:100130008B4202D31212090265D0030B8B4219D3F2
:1001400000E0090AC30B8B4201D3CB03C01A524112
:10015000830B8B4201D38B03C01A5241430B8B425A
:1001600001D34B03C01A5241030B8B4201D30B0343
:10017000C01A5241C30A8B4201D3CB02C01A52416A
:10018000830A8B4201D38B02C01A5241430A8B422D
:1001900001D34B02C01A5241030A8B4201D30B0216
:1001A000C01A5241CDD2C3098B4201D3CB01C01A30
:1001B000524183098B4201D38B01C01A524143093A
:1001C0008B4201D34B01C01A524103098B4201D328
:1001D0000B01C01A5241C3088B4201D3CB00C01A95
:1001E000524183088B4201D38B00C01A524143080D
:1001F0008B4201D34B00C01A5241411A00D2014632
:10020000524110467047FFE701B5002000F006F8A4
:1002100002BDC0460029F7D076E770477047C04658
:1002200010B5040001F060F9FA218900FFF76CFFB6
:1002300000F068F8012000222100404200F032F86E
:10024000002010BD10B5064A136810210B4313603F
:100250000020FFF7E5FF02F0E9F8002010BDC046DE
:1002600000200240024A1368013313607047C04601
:1002700064000020014B18687047C04664000020ED
:1002800030B583B00190FFF7F5FF0500019C631CBA
:1002900000D00134FFF7EEFF401BA042FAD303B0B9
:1002A00030BD000070B5002811DB8408134DC03448
:1002B000A400625903231840C000FC331E0086408E
:1002C000B24389010B4083401343635170BDC0B2F8
:1002D0000F220240083A920806329200084BD318C7
:1002E0005D6803242040C000FF2214008440A54321
:1002F00089010A4082402A435A60E7E700E100E0B2
:1003000000ED00E001380A4B98420FD8094A5060CE
:100310000948036A1B021B0AC02109060B4303623A
:100320000023936007331360002070470120FCE72F
:10033000FFFFFF0010E000E000ED00E0F0B5C64672
:1003400000B582B000236EE084683440A446CC68D7
:10035000BC406246144384604468AC434A68120956
:10036000012515409D4025434560C46826408C68A2
:10037000BC403443C4604A68D20053D54A4DAE698C
:1003800001242643AE61AD692C400194019C9C0878
:10039000A51CAD00454EAF5903251D40AD000F26ED
:1003A000AE40B7439026F605B04275D0404EB042FD
:1003B00074D0404EB0426DD00526AE4035003D436E
:1003C0000234A400394EA5513B4C25684246D44323
:1003D0002E0026404A68D20302D5424615432E001D
:1003E000354D2E606D682E0026404A68920302D576
:1003F000424615432E00304D6E60AD682E002640FB
:100400004A68D20202D5424615432E002A4DAE60FC
:10041000ED682C404A68920202D542462A431400F5
:10042000254AD46001330A681400DC4038D0012525
:100430009D402A409046F5D04C68022C01D0122CE9
:100440000ED1DC080834A400275807261E40B60049
:100450000F22B24097430A69B24016003E4326502D
:1004600002685F0003242600BE40F64332409446F3
:100470004A681440BC406246144304604C68621EE3
:10048000012A00D860E7112C00D15DE7122C00D0C2
:100490006BE759E7022690E700268EE701268CE7F6
:1004A00002B004BC9046F0BD0010024000000140C4
:1004B000000400480008004800040140002A01D15F
:1004C000816270478161FCE703689A69920701D5F0
:1004D00000229A6203689A69D20703D49A690121BB
:1004E0000A439A617047000030B51D0004686068D7
:1004F000064B18408905890D12040B0013432B434A
:10050000039A13430343636030BDC046009800FC68
:1005100070B504000E00150003689B69DB0616D554
:1005200023689A69920614D4731CF9D0002E04D063
:10053000FFF7A0FE401BB042F2D941232022E25433
:1005400000232232A354023AA354032018E00020CF
:1005500016E01022DA6123682025DD612000FFF714
:10056000B3FF2268536807490B4053600423636458
:100570003D33E55400234222A354023AA354012000
:1005800070BDC04600E800FE70B504000D00160006
:1005900023689B699B071CD4320029002000FFF7C9
:1005A000B7FF002817D16B1CF2D0002D04D0FFF745
:1005B00061FE801BA842EBD9636C20221343636465
:1005C0004123E25400232232A354023AA3540320CD
:1005D00000E0002070BD0120FCE7F8B506000C002B
:1005E00017001D0033689B6923401B1B5A4253416F
:1005F000BB4213D16B1CF5D0002D05D0FFF73AFE9E
:10060000069BC01AA842EDD941232022F2540023B0
:100610002232B354023AB354032000E00020F8BD64
:1006200070B582B0040016001D008023EAB280205D
:10063000800100905B042000FFF756FF079A06999F
:100640002000FFF7A1FF002805D0636C042B26D102
:10065000012002B070BD012D0ED12368F6B29E625A
:10066000079B0093069B002280212000FFF7B5FF27
:100670000028EED00320ECE72368320A9A62079A3A
:1006800006992000FFF780FF002804D0636C042B3C
:1006900007D10120DDE72368F6B29E62E0E7032080
:1006A000D7E70320D5E770B582B0040016001D001F
:1006B000DAB280239B0100930023FFF715FF079A0E
:1006C00006992000FFF760FF002805D0636C042B1B
:1006D00026D1012002B070BD012D0ED12368F6B2E3
:1006E0009E62079B0093069B002240212000FFF79B
:1006F00074FF0028EED00320ECE72368320A9A62E8
:10070000079A06992000FFF73FFF002804D0636C8A
:10071000042B07D10120DDE72368F6B29E62E0E7F3
:100720000320D7E70320D5E770B505000C001600BD
:100730002B689B699B061AD4320021002800FFF722
:10074000E7FE002815D1002C04D0FFF793FD801B95
:10075000A042EDD96B6C202213436B644123EA5411
:1007600000232232AB54023AAB54032070BD002068
:10077000FCE70120FAE7000010B5041E59D0412320
:10078000C35C002B43D041232422E2542268136827
:1007900001218B4313602268274B61680B40136172
:1007A0002268936825490B409360E368012B34D09D
:1007B000226884231B02A1680B439360E368022B29
:1007C00032D0226851681E4B0B4353602268D368B5
:1007D0001A490B40D360236962691343A26912026C
:1007E00021681343CB602268E369216A0B431360DD
:1007F0002268136801210B431360002363644122C4
:100800001F31A15423630132A354002010BD403393
:100810000022C25401F022FEB5E7226880231B02A9
:10082000A1680B439360C9E72368802212015A60D4
:10083000C7E70120EAE7C046FFFFFFF0FF7FFFFFA9
:1008400000800002F0B587B0050003910492059383
:100850000CAB10CB1E884123C35C202B00D0C1E021
:10086000002C00D1C1E0002E00D1C0E02033C35CD9
:10087000012B00D1BDE040230122C254FFF7FAFC56
:100880000700802100901923012209022800FFF7A8
:10089000A4FE002800D0AEE041232122EA54013317
:1008A0001F32EA5400236B646C626E856B630197A0
:1008B0000E980090059B049A03992800FFF7B0FE5C
:1008C00000280CD06B6C042B04D13C330022EA547A
:1008D000012088E040230022EA54032083E06B8D4E
:1008E0009BB2FF2B0BD9FF232B857F3B002200926D
:1008F0005B04FF3203992800FFF7F6FD22E06A8DC2
:1009000092B22A858023D2B2002100919B040399E0
:100910002800FFF7E9FD15E06B6C042B00D06CE0BC
:10092000012060E06A8D92B22A858023D2B2002134
:1009300000919B0403992800FFF7D6FD6B8D9BB2B5
:10094000002B33D03A000E992800FFF71DFE002837
:10095000E2D16B6A5A1C6A622A681B7893626B8DBB
:10096000013B9BB26B852B8D013B9BB22B85002BF2
:10097000E4D16B8D9BB2002BE0D000970E9B002240
:1009800080212800FFF729FE002838D16B8D9BB20B
:10099000FF2BC7D9FF232B857F3B002200925B04EE
:1009A000FF3203992800FFF79FFDC7E73A000E9931
:1009B0002800FFF7B9FE002804D06B6C042B20D16F
:1009C000012010E02B682022DA6129684B680E4C68
:1009D00023404B604123EA5400232232AB54023AB5
:1009E000AB5400E0022007B0F0BD0120FBE701207E
:1009F000F9E70220F7E70320F5E70320F3E70320F8
:100A0000F1E70320EFE7C04600E800FEF0B587B04D
:100A100004000391049205930CAB20CB1F88412363
:100A2000C35C202B00D0BFE0002D00D1BFE0002F21
:100A300000D1BEE02033C35C012B00D1BBE04023DA
:100A40000122C254FFF716FC0600802100901923F2
:100A5000012209022000FFF7C0FD002800D0ACE011
:100A600041232222E25401331E32E2540023636404
:100A700065626785636301960E980090059B049AF2
:100A800003992000FFF70FFE00280CD0636C042BA5
:100A900004D13C330022E254012086E040230022AE
:100AA000E254032081E0638D9BB2FF2B0CD9FF231E
:100AB00023857F3B9022920100925B04FF220399E1
:100AC0002000FFF711FD1DE0628D92B22285802388
:100AD000D2B29021890100919B0403992000FFF775
:100AE00003FD0FE0628D92B222858023D2B20021F5
:100AF00000919B0403992000FFF7F6FC638D9BB2E5
:100B0000002B35D000960E9B002204212000FFF719
:100B100064FD002853D123685A6A636A591C6162D4
:100B20001A70238D013B9BB22385628D013A92B2EC
:100B30006285002BE2D1638D9BB2002BDED0009644
:100B40000E9B002280212000FFF747FD002838D1AE
:100B5000638D9BB2FF2BC5D9FF2323857F3B0022EA
:100B600000925B04FF3203992000FFF7BDFCC5E74C
:100B700032000E992000FFF7D7FD002804D0636CE7
:100B8000042B20D1012010E023682022DA612168A3
:100B90004B680E4D2B404B604123E2540023223220
:100BA000A354023AA35400E0022007B0F0BD012094
:100BB000FBE70120F9E70220F7E70320F5E7032030
:100BC000F3E70320F1E70320EFE7C04600E800FE6B
:100BD000F0B5C64600B584B00400884617001D0075
:100BE000002303934133C35C202B00D08BE00368C8
:100BF0009B691B0400D58BE04023C35C012B00D113
:100C000088E040230122C25401332332C25400231E
:100C1000436420E043469A05920D424B134323E080
:100C20009369DB0642D500962B000022202120008C
:100C3000FFF7D3FC002800D070E023681022DA61AF
:100C400023681032DA61039B5A1C0392BB423FD0E7
:100C5000039BBB424FD2E368012BDBD043469A058E
:100C6000920DA0239B01134322685360FFF702FB00
:100C70000600226893699B06D2D49369DB06CFD421
:100C80004123E35CDBB2A02BCAD06B1CF1D0002D5A
:100C900004D0FFF7EFFA801BA842EAD941232022B3
:100CA000E254013B0022E25403202DE000962B0089
:100CB000002220212000FFF790FC00282CD1226880
:100CC0002023D3614122A35420330022E2541BE0AD
:100CD000226851688023DB010B43536000962B0090
:100CE000002220212000FFF778FC002818D123687B
:100CF0002022DA61ACE741232022E254013B0022AA
:100D0000E254032000E0022004B004BC9046F0BD91
:100D10000220F9E70220F7E70320F5E70320F3E7D5
:100D20000320F1E700200002F0B54123C35C202B33
:100D300020D12033C35C012B1ED040240122025558
:100D4000412524234355066833689343336006687E
:100D500033680A4F3B40336006683368194331609B
:100D600001680B6813430B60202343550023035590
:100D7000002000E00220F0BD0220FCE7FFEFFFFFB3
:100D8000F0B54123C35C202B1ED12033C35C012B63
:100D90001CD04024012202554125242343550668D6
:100DA00033689343336006683368094F3B40090258
:100DB0001943316001680B6813430B6020234355CE
:100DC00000230355002000E00220F0BD0220FCE7D4
:100DD000FFF0FFFF70B582B004000368DB072BD57E
:100DE000B34B5A680C231340042B1DD0B04B5A68E8
:100DF0000C231340082B0ED06368012B41D0002B2D
:100E000056D1AB4B1A68AB490A401A601A68AA4916
:100E10000A401A603BE0A64B5B68C02252021340B6
:100E2000802252029342E7D1A14B1B689B0303D55A
:100E30006368002B00D139E223689B0778D59C4B6F
:100E40005B680C221A4262D0994B5A680C231340FB
:100E5000082B53D0E368002B00D18BE0944A136831
:100E600001210B431360FFF705FA0500904B1B6847
:100E70009B0776D4FFF7FEF9401B0228F6D9032022
:100E800017E28B4A116880235B020B43136063688F
:100E9000002B25D0FFF7EEF90500854B1B689B035F
:100EA000CAD4FFF7E7F9401B6428F6D9032000E213
:100EB000052B09D07E4B1A687E490A401A601A68D1
:100EC0007D490A401A60E2E7794B19688022D20214
:100ED0000A431A601968802252020A431A60D6E750
:100EE000FFF7C8F90500724B1B689B03A4D5FFF7F9
:100EF000C1F9401B6428F6D90320DAE16C4B5B682A
:100F0000C02252021340802212029342A2D1684BA7
:100F10001B689B0704D5E368012B01D00120C8E1C1
:100F200063490B68F82293432269D20013430B6094
:100F300023681B0744D5E369002B2ED05C4A536A13
:100F400001210B435362FFF795F90500584B5B6A8B
:100F50009B0735D4FFF78EF9401B0228F6D90320F2
:100F6000A7E153490B68F82293432269D200134347
:100F70000B60DDE74E4A136801218B431360FFF7D6
:100F800079F905004A4B1B689B07D1D5FFF772F929
:100F9000401B0228F6D903208BE1454A536A012100
:100FA0008B435362FFF766F90500414B5B6A9B0771
:100FB00006D5FFF75FF9401B0228F6D9032078E138
:100FC00023685B0700D47FE0394BDB69DB001DD46D
:100FD000374AD169802040050143D161D36903407C
:100FE0000193019B0125354B1B68DB0510D5A368D8
:100FF000012B21D0002B36D12D4B1A6A01218A43B7
:101000001A621A6A03318A431A621AE00025EAE773
:101010002A4A116880235B000B431360FFF72AF90B
:101020000600264B1B68DB05E1D4FFF723F9801B84
:101030006428F6D903203CE11D4A136A01210B43C1
:101040001362A368002B24D0FFF714F90600184B95
:101050001B6A9B0736D4FFF70DF9801B184B98428B
:10106000F5D9032025E1052B09D0114B1A6A01217E
:101070008A431A621A6A03318A431A62E1E70C4B07
:101080001A6A04210A431A621A6A03390A431A6265
:10109000D7E7FFF7EFF80600054B1B6A9B0711D552
:1010A000FFF7E8F8801B064B9842F5D9032000E1D2
:1010B00000100240FFFFFEFFFFFFFBFF007000403B
:1010C00088130000012D3AD02368DB0610D5636930
:1010D000012B3AD0053358D1784A536B04218B4306
:1010E0005363536BF4318B43A169C9000B435363C2
:1010F00023689B0600D482E0704B5A680C2313408F
:101100000C2B60D06D4B5A680C231340082B53D026
:10111000236A002B60D0694A516B80235B020B432A
:101120005363FFF7A7F80500644B5B6BDB0366D4E2
:10113000FFF7A0F8401B0228F6D90320B9E05F4A68
:10114000D3695F490B40D361BEE75C4B5A6B042106
:101150000A435A635A6B03390A435A63FFF78AF802
:101160000500564B5B6B9B0706D4FFF783F8401BCB
:101170000228F6D903209CE050494B6BF822934398
:10118000A269D20013434B63B2E74C4B5A6B042164
:101190000A435A635A6B03398A435A63FFF76AF862
:1011A0000500464B5B6B9B07A2D5FFF763F8401B1E
:1011B0000228F6D903207CE0404B5B68C022520233
:1011C00013409342A4D13D4B5B6BDB0317D5236ADD
:1011D000012B14D001206CE0384A536B39490B4085
:1011E0005363FFF747F80500344B5B6BDB0306D511
:1011F000FFF740F8401B0228F6D9032059E0636A44
:10120000002B55D02D4A51680C220A40082A52D092
:10121000022B12D0294A13682B490B401360FFF7A9
:1012200029F80400254B1B689B013DD5FFF722F8E8
:10123000001B0228F6D903203BE0204A136822490C
:101240000B401360FFF716F805001C4B1B689B0151
:1012500006D5FFF70FF8401B0228F6D9032028E037
:10126000164BDA6A0F218A43216B0A43DA625A6805
:1012700016490A40E16AA06A01430A435A601968A4
:10128000802252040A431A60FEF7F4FF04000B4B5D
:101290001B689B0106D4FEF7EDFF001B0228F6D960
:1012A000032006E0002004E0002002E0012000E02E
:1012B000002002B070BD0120FBE7C04600100240D4
:1012C000FFFFFFEFFFFFFEFFFFFFFFFEFF7FC2FFFD
:1012D00030B589B004AA1F4B180032C832C21100C1
:1012E00002680A606A46103313CB13C21B6813608E
:1012F000194B5A680C231340082B04D00C2B26D012
:10130000164809B030BD910C0F23194004A8445C65
:101310001149C96A0B406946C95CC0235B021A4087
:1013200080235B029A4208D0C0235B029A4209D014
:101330000A48FEF7E9FE6043E3E70848FEF7E4FEEB
:101340006043DEE70648FEF7DFFE6043D9E7044866
:10135000D7E7C046702700080010024000127A004C
:10136000006CDC0270B505000C00594B1A680123B3
:1013700013408B420BD256490B68012293432343FF
:101380000B600B681A40A24201D0012070BD2B688F
:101390009B0706D54F4A5368F0218B43A9680B433E
:1013A00053602B68DB0763D56B68012B09D0022BD8
:1013B00028D0032B2CD0474A1268920705D401206D
:1013C000E4E7444A126892037FD542494A68032001
:1013D000824313434B60FEF74DFF06006B68012B01
:1013E0001CD0022B28D0032B34D03A4B5B680C2244
:1013F0001A423DD0FEF73EFF801B374B9842F4D98E
:101400000320C3E7334A12689201DED40120BDE70E
:10141000304A526BD203D8D40120B7E72D4B5A681B
:101420000C231340042B23D0FEF724FF801B2A4BF0
:101430009842F3D90320A9E7264B5A680C2313409E
:10144000082B15D0FEF716FF801B234B9842F3D9CB
:1014500003209BE71F4B5A680C2313400C2B07D02B
:10146000FEF708FF801B1C4B9842F3D903208DE741
:10147000174B1A6801231340A3420BD914490B6878
:101480000122934323430B600B681A40A24201D010
:1014900001207BE72B685B0706D50E4A53680F498E
:1014A0000B40E9680B435360FFF712FF094B5A6882
:1014B00012090F2313400A4AD35CD840094B186025
:1014C0000020FEF7ADFE002060E701205EE7C04689
:1014D000002002400010024088130000FFF8FFFFC8
:1014E0009027000820000020014B18687047C04674
:1014F0002000002010B5FFF7F7FF044B5A68120ACE
:1015000007231340024AD35CD84010BD00100240AC
:10151000A027000870B582B004000368DB0335D54E
:10152000464BDB69DB005CD4444AD169802040052E
:101530000143D161D36903400193019B0125404BD5
:101540001B68DB054FD53D4B1B6AC0229200134040
:1015500013D061680A409A420FD0384B186A394A52
:1015600002401E6A8021490231431962196A364ECF
:10157000314019621A62C30749D4304A136A3149AB
:101580000B4061680B431362012D4FD02368DB07CA
:1015900006D52A4A136B03218B43A1680B431363BF
:1015A00023689B0606D5254A136B10218B43E168FF
:1015B0000B43136323689B0306D5204A136B8021DA
:1015C0008B4361690B43136323685B0533D51B4A67
:1015D000136B40218B4321690B431363002002B03E
:1015E00070BD0025ABE7164A116880235B000B43F2
:1015F0001360FEF73FFE0600114B1B68DB05A2D40B
:10160000FEF738FE801B6428F6D90320E7E7FEF7D3
:1016100031FE0600094B1B6A9B07AED4FEF72AFE7B
:10162000801B0A4B9842F5D90320D8E7D3690849B3
:101630000B40D361AAE70020D1E7C046001002406A
:1016400000700040FFFCFFFFFFFFFEFF881300005B
:10165000FFFFFFEF30B5036A012293430362036A81
:10166000426884697325AC430D682C430225AB4363
:101670008D682B43114DA84205D0114DA84202D0D0
:10168000104DA84205D10825AB43CD682B43042556
:10169000AB430A4DA84205D0094DA84202D0094DDE
:1016A000A84205D1084D2A404D692A438D692A4335
:1016B000426084614A684263036230BD002C01408D
:1016C0000044014000480140FFFCFFFF70B5036A81
:1016D000184A13400362036A4268C4697325AC4325
:1016E0000E682643144C23408C6824022343134C79
:1016F000A04216D0114CA04205D0114CA04202D0FD
:10170000104CA04207D1104C14404A6912012243E8
:101710008C6925012A434260C6614A68C26303623C
:1017200070BD0A4C1C40CB681B022343084C23406D
:10173000E0E7C046FFFEFFFFFFFDFFFF002C01407A
:101740000044014000480140FFCFFFFFFFF7FFFFCB
:10175000FFFBFFFF30B5036A114A13400362026AC0
:101760004368C4690F4D2C400D682D022C430E4D6B
:1017700015408A6812032A430C4DA84205D00C4D2F
:10178000A84202D00B4DA84204D10B4D2B404D690D
:10179000AD012B434360C4614B680364026230BDFA
:1017A000FFEFFFFFFF8CFFFFFFDFFFFF002C01407B
:1017B0000044014000480140FFBFFFFF03681E4A8C
:1017C000904206D08022D205904202D01B4A90421D
:1017D00003D1702293434A681343174A90420FD0B3
:1017E0008022D20590420BD0144A904208D0144A6D
:1017F000904205D0134A904202D0134A904203D13E
:10180000124A1340CA681343802293434A69134320
:1018100003608B68C3620B688362074B984205D0F4
:10182000084B984202D0084B984201D10B690363E0
:10183000012343617047C046002C01400004004072
:10184000002000400044014000480140FFFCFFFF31
:1018500070B5041E14D03D23C35C002B0AD03D2577
:1018600002236355211D2068FFF7A8FF012363555C
:10187000002070BD3C330022C25400F053FEEEE75E
:101880000120F6E7F0B5C64600B504000D000028BB
:1018900043D03D23C35C002B39D03D260223A35502
:1018A000210004C993680720834393602068FFF7F1
:1018B00085FF216888688A690F6A2B68184380460B
:1018C000174B1340AA691202A86802431A43154B2A
:1018D0001A40EB691B02E86803431A432B691B019A
:1018E000286A000303431343AA2297436A686D6979
:1018F0002D012A433A434046886021688B61236862
:101900001A620123A355002004BC9046F0BD3C336D
:101910000022C25400F0D8FDBFE70120F4E7C04622
:10192000FCFCFFFF0303FFFF70B5036A1022934323
:101930000362036A42688469164D2C400D682D02CB
:1019400025432024A3438C6824012343124CA04246
:1019500016D0114CA04205D0104CA04202D0104C21
:10196000A04207D10F4C14404A69920022438C696F
:10197000A6003243426085614A688263036270BD9B
:101980008024A3431C00CB681B0123434024A343B2
:10199000DFE7C046FF8CFFFF002C01400044014000
:1019A00000480140FFF3FFFF70B504000D003C2329
:1019B000C35C012B69D03C230121C15401330131A7
:1019C000C154042A37D019D9082A4AD00C2A2AD15E
:1019D00029000068FFF7BEFE2268D16980231B0141
:1019E0000B43D3612268D36929490B40D361216835
:1019F000CB692A6912021343CB6114E0002A12D189
:101A000029000068FFF726FE2268936908210B432E
:101A100093612268936904398B43936122689369C7
:101A200029690B4393613D230122E254013B0022CB
:101A3000E254002070BD29000068FFF775FF22689E
:101A4000916980231B010B439361226893691049BC
:101A50000B40936121688B692A69120213438B61E1
:101A6000E1E729000068FFF731FE2268D369082109
:101A70000B43D3612268D36904398B43D361226855
:101A8000D36929690B43D361CDE70220D2E7C04671
:101A9000FFFBFFFF10B501248C40036AA3430362E0
:101AA000036A8A401A43026210BD000010B50400A8
:101AB00001220068FFF7EEFF23680A4A934205D02F
:101AC000094A934202D0094A934204D1596C8022B8
:101AD00012020A435A642268136801210B431360FF
:101AE000002010BD002C014000440140004801408E
:101AF000F0B53C23C35C012B1ED03C22012585544C
:101B00003D2402230355066873687027BB43736046
:101B1000066873680F683B4373600668B368802784
:101B2000BB43B3600668B36849680B43B3600555AF
:101B3000002383540020F0BD0220FCE770B50400B0
:101B400083680269134342691343C26913430168FE
:101B50000A686048024013430B60226853685E497C
:101B60000B40E1680B435360A269236A1A43216862
:101B70008B685A48034013438B602568584B9D423D
:101B800020D0584B9D4231D0102380221202E169AF
:101B900091422FD0022B00D180E000D86EE0042BC0
:101BA00000D187E0082B00D092E0616848088023CC
:101BB0001B029C466044FEF7A7FA0004000CE86094
:101BC000002040E0484B1A6B03231340012B09D03F
:101BD000002B05D0022B07D0032B09D01023D4E70C
:101BE0000023D2E70423D0E70823CEE70023CCE785
:101BF0000223CAE7022B27D00FD9042B2FD0082BA2
:101C000039D16368580880235B029C466044616850
:101C1000FEF77AFA83B200200CE0002B2BD1FFF7FD
:101C200069FC400063685B08C0186168FEF76CFAE5
:101C300083B200200F22190091435B10083A134031
:101C40000B432268D36070BD63685808274B9C46DD
:101C500060446168FEF758FA83B20020EAE7FFF7B4
:101C600037FB400063685B08C0186168FEF74CFAF8
:101C700083B20020DEE701200023DBE7002B27D121
:101C8000FFF738FC63685B08C0186168FEF73CFA30
:101C900023680004000CD8600020D4E7616848087D
:101CA000134B9C466044FEF72FFA0004000CE860DA
:101CB0000020C8E7FFF70CFB63685B08C018616889
:101CC000FEF722FA23680004000CD8600020BAE76F
:101CD0000120B8E7F369FFEFFFCFFFFFFFF4FFFF3D
:101CE0000038014000440040001002400024F4008D
:101CF00000127A00436ADB0706D5026853682C4954
:101D00000B40816A0B435360436A9B0706D5026808
:101D1000536828490B40C16A0B435360436A5B0711
:101D200006D50268536824490B40016B0B4353608E
:101D3000436A1B0706D50268536820490B40416B74
:101D40000B435360436ADB0606D5026893681C495F
:101D50000B40816B0B439360436A9B0606D5026878
:101D6000936818490B40C16B0B439360436A5B0651
:101D70000BD50268536814490B40016C0B43536048
:101D800080235B03026C9A420AD0436A1B0606D585
:101D9000026853680D490B40816C0B4353607047D8
:101DA000026853680A490B40416C0B435360ECE7EF
:101DB000FFFFFDFFFFFFFEFFFFFFFBFFFF7FFFFFBA
:101DC000FFEFFFFFFFDFFFFFFFFFEFFFFFFFF7FF6B
:101DD000FFFF9FFFF0B5C64600B506000C001700D8
:101DE0009846069D3368DB6923401B1B5A425341CA
:101DF000BB421ED16B1CF5D0002D05D0FEF73AFA80
:101E00004346C01AA842EDD9326813680B490B400B
:101E1000136032689368A331FF318B4393602023B2
:101E20006922B3540132B35448330022F2540320E0
:101E300000E0002004BC9046F0BDC0465FFEFFFFFE
:101E4000F0B585B004000E0017001D006923C35CC7
:101E5000202B59D100295AD0002A5AD080235B0167
:101E600082689A4213D06823E35C012B53D0682325
:101E70000122E2540023E36669332032E254FEF784
:101E8000F9F903905023E7520233E7520AE003695D
:101E9000002BE8D1CB07E6D5012036E03378226865
:101EA000138501365223E35A9BB2002B1CD05222D9
:101EB000A35A013B9BB2A3520095039B00228021B1
:101EC0002000FFF787FF002827D180235B01A2684D
:101ED0009A42E3D12369002BE0D13388DB05DB0D87
:101EE000226813850236DDE70095039B002240211E
:101EF0002000FFF76FFF002811D169232022E25450
:101F0000013B0022E25400E0022005B0F0BD0120B8
:101F1000FBE70120F9E70220F7E70320F5E70320BC
:101F2000F3E7000030B583B004000023C366FEF77A
:101F3000A1F905002368174A93420AD02023692299
:101F4000A3540132A35448330022E254002003B0CA
:101F500030BD1B681B0710D423681B685B07EDD5D9
:101F600080210D4B00932B000022C9032000FFF7B6
:101F700031FF0028E2D00320E9E78021064B0093DF
:101F80000300002289032000FFF724FF0028E3D08C
:101F90000320DCE700380140FFFFFF0110B5041EFD
:101FA00030D06923C35C002B22D069232422E25461
:101FB0002268136801218B4313602000FFF7BEFDE8
:101FC000012814D0636A002B18D1226853680E4987
:101FD0000B405360226893682A218B4393602268E8
:101FE000136829390B4313602000FFF79BFF10BDD6
:101FF00068330022C25400F0D5FAD6E72000FFF77C
:1020000079FEE2E70120F2E7FFB7FFFF30B587B0C6
:10201000050005AB00221A80FA239B0002930223DD
:10202000019305AC0094013B3222A4212800FEF765
:10203000EDFC6378DB07EFD507B030BD70B584B039
:1020400005000E00002411E06300A2B2FA2189000D
:10205000029102210191F31800930123A23128007B
:10206000FEF7D4FC0120FEF70BF90134072CEBDD61
:102070000520FEF705F904B070BD0000F0B5C646B6
:1020800000B588B005000E000E22002104A800F063
:102090005BFB0A2398460293022701973C4C00946D
:1020A000093B6022A4212800FEF7CCFB43460293A3
:1020B0000197A31C009301233122A4212800FEF7DD
:1020C000C1FB43460293019704340094093B31223B
:1020D000A4212800FEF7B6FB2800FFF797FF002495
:1020E0000FE063002200903292B20A210291083977
:1020F0000191F31800930123A2312800FEF7A2FBFF
:102100000134062CEDDD0A27029702260196204CA9
:10211000A31D009301233522A4212800FEF792FB82
:102120002800FFF773FF02970196083400940123FB
:102130003522A4212800FEF785FB2800FFF766FF63
:10214000002411E063002200903292B20A21029131
:102150000839019104A98C46634400930123A4210A
:102160002800FEF753FC0134062CEBDD0A23029312
:10217000083B0193064B0233009301236022A42104
:102180002800FEF75FFB08B004BC9046F0BDC046D7
:102190000000002010B588B01422002103A800F030
:1021A000D3FA174B59698020C003014359615A691A
:1021B00002400092009A59698020800201435961CF
:1021C0005A6902400192019A5A698021C9020A4360
:1021D0005A615B690B400293029B0A4C0022282142
:1021E0002000FEF76BF928230393273B0493002379
:1021F0000593069303A92000FEF7A0F808B010BDD0
:10220000001002400004004810B50D4C0D4B236037
:102210000D4B63600023A3600122E26023616361D0
:10222000A361E36123622000FEF7A6FA00212000EB
:10223000FEF77AFD00212000FEF7A2FD10BDC0468A
:1022400068000020005400400E09002030B58DB019
:102250002022002104A800F077FA0822002101A81A
:1022600000F072FA0D4C8023DB05236000256560C9
:10227000A5600B4BE3602561A561012303930593E2
:10228000099303A92000FFF7FDFA0195029501A922
:102290002000FFF72DFC0DB030BDC046F40000203B
:1022A000FFFF000030B58BB00822002108A800F025
:1022B0004BFA1C22002101A800F046FA114C124BE7
:1022C000236000256560A56096235B01E3602561BE
:1022D000A5612000FFF7BCFA0895099508A9200020
:1022E000FFF706FC602301930295039505950022F4
:1022F00001A92000FFF758FB200000F029F90BB0DE
:1023000030BDC046B40000200004004010B50948AC
:10231000094B036096231B02436000238360C36064
:1023200003610C2242618361C36103624362FFF770
:1023300035FE10BD340100200044004010B598B0B7
:10234000302200210CA800F0FFF91022002107A87C
:1023500000F0FAF91822002101A800F0F5F9222373
:102360000B93213B0E9313930F330F930BA8FEF7A0
:1023700031FD07230793043B0893002409940A9432
:10238000012107A8FEF7EEFF20230193049401A882
:10239000FFF7C0F818B010BD10B5FDF753FFFFF7F9
:1023A000CDFFFFF7F7FEFFF72FFFFFF74FFFFFF718
:1023B00079FFFFF7ABFF164C00212000FFF776FBFB
:1023C0002368FA22D2005A6312491348FFF756FED7
:1023D00007E0FA204000FDF753FF10490E48FFF7D1
:1023E0002DFE0A230D220E490E48FFF729FD094B49
:1023F000997B49000A2301220748FEF7E9FB0028E0
:10240000E7D10A230D2208490648FFF719FDE0E746
:10241000B40000200C0000206800002040000020D4
:10242000A827000834010020B427000882B00A4B16
:10243000996901221143996199690A400092009AB1
:10244000DA69802149050A43DA61DB690B400193AF
:10245000019B02B07047C0460010024010B588B022
:1024600004001422002103A800F06EF92268134B27
:102470009A4201D008B010BD114C62698021C90296
:102480000A43626163690B400193019BC02303937C
:10249000AE3B0493113B059303220692079303A9D5
:1024A0000848FDF74BFFE269802189030A43E26196
:1024B000E3690B400293029BDCE7C04600540040F6
:1024C000001002400004004810B588B00400142237
:1024D000002103A800F038F922688023DB059A4226
:1024E00001D008B010BD0E4BD96901221143D9614A
:1024F000D9690A400192019A5A69802189020A43E6
:102500005A615B690B400293029B03230393013BD7
:1025100004930793902003A9C005FDF70FFFE0E7A0
:102520000010024082B00268074B9A4201D002B00C
:102530007047064AD16902231943D161D269134019
:102540000193019BF3E7C0460004004000100240E5
:1025500010B586B004001422002101A800F0F4F8A0
:1025600022680D4B9A4201D006B010BD0B4A51694A
:102570008020C00201435161536903400093009BD6
:10258000102301930E3B0293013B059301A90448DC
:10259000FDF7D4FEE8E7C04600040040001002400A
:1025A0000004004810B588B004001422002103A8DC
:1025B00000F0CAF82268124B9A4201D008B010BD50
:1025C000104BD969802292021143D961D969114017
:1025D000019101995969114359615B691A4002924D
:1025E000029B094B03930223049301330693023B9E
:1025F0000793902003A9C005FDF7A0FEDEE7C046C3
:102600000044004000100240048000007047FEE7D4
:102610007047704710B5FDF725FE10BD114B1A68C5
:1026200001210A431A605A680F4802405A601A682A
:102630000E4802401A601A680D4802401A605A6833
:102640000C4802405A60DA6A0F208243DA621A6B41
:10265000094802401A635A6B8A435A6300229A60FF
:102660007047C046001002400CB8FF08FFFFF6FE9E
:10267000FFFFFBFFFFFFC0FF2CFEFFFF1348854657
:1026800013480168090E134A914205D112481349B3
:10269000016013481349016013481449144A002388
:1026A00002E0D458C4500433C4188C42F9D3114A00
:1026B000114C002301E013600432A242FBD3FFF768
:1026C000ADFF00F01DF8FFF767FEFEE700180020E1
:1026D000040000001F00000018100240010000006C
:1026E0000000014000000000000000202400002045
:1026F000C827000824000020A4010020FEE70000F5
:1027000070B500260C4D0D4C641BA410A64209D1D7
:10271000002600F021F80A4D0A4C641BA410A642C2
:1027200005D170BDB300EB5898470136EEE7B30012
:10273000EB5898470136F2E7C0270008C027000889
:10274000C0270008C427000803001218934200D1D4
:10275000704719700133F9E7F8B5C046F8BC08BCFA
:102760009E467047F8B5C046F8BC08BC9E46704708
:1027700002030405060708090A0B0C0D0E0F1010C2
:102780000102030405060708090A0B0C0D0E0F10C1
:102790000000000000000000010203040607080911
:1027A000000000000102030448656C6C6F20577242
:1027B0006C640D004452562052656164790D00002E
:0427C000E900000824
:0427C400C100000848
:1027C80080000000C0DE000600020000169A062AFB
:1027D80000D009FBBF7FEC63016A520508000000C6
:0427E80000127A0061
:040000050800267D4C
:00000001FF
